:020000040C00EE
:100000000008002001020008CB020008DB02000803
:10001000EB020008FB0200080B03000800000000D0
:100020000000000000000000000000001B030008AA
:100030002B030008000000003B0300084B030008EE
:100040005B0300086B0300087B0300088B030008B8
:100050009B030008AB030008BB030008CB030008A8
:10006000DB030008000000000000000000000000AA
:10007000EB03000800000000FB0300080B0400086D
:100080001B0400082B0400083B0400084B04000874
:100090005B0400086B0400087B0400088B04000864
:1000A0009B040008AB040008BB040008CB04000854
:1000B000DB040008EB040008FB0400080B05000843
:1000C0001B0500082B0500083B0500084B05000830
:1000D0005B0500086B0500087B0500088B05000820
:1000E0009B050008AB050008BB050008CB05000810
:1000F000DB050008EB050008FB0500080B060008FF
:100100001B060008290600083706000845060008F7
:1001100053060008610600086F0600087D06000807
:100120008B06000899060008A7060008B506000817
:10013000C3060008D1060008DF060008ED06000827
:10014000FB06000809070008170700082507000834
:1001500033070008410700084F0700085D07000843
:10016000000000000000000000000000000000008F
:100170006B07000879070008870700089507000843
:10018000A3070008B1070008BF070008CD07000853
:10019000DB070008E9070008F70700080508000862
:1001A00013080008210800082F0800083D0800086F
:1001B0004B0800085908000867080008750800087F
:1001C00083080008910800089F080008AD0800088F
:1001D000BB080008C9080008D70800080000000094
:1001E000E5080008F3080008010900080F090008E5
:1001F0001D090008000000002B0900080000000095
:10020000DFF80CD0034880470348804700F006B869
:1002100000080020F50A0008151800081E481F49AC
:100220001F4A002A00F01280042A80F002804FF05A
:1002300004024FEA920203680B60013A00F0068064
:1002400000F1040001F10401FFF7F5BF154816495C
:10025000002900F01180042980F002804FF0040191
:100260004FEA91014FF000020260013900F0048072
:1002700000F10400FFF7F8BF0C480D4908600D4875
:1002800080470D488047DFF834D04FF000004FF032
:100290000001DFF82CF00000D02A000C300800200C
:1002A00034000000000800202800000000000008C2
:1002B00008ED00E0910B0008152A00080008002056
:1002C0001D12000800BF7047FEE7DFF8700600B59A
:1002D00081B0804701B000BDFEE7DFF8640600B5DD
:1002E00081B0804701B000BDFEE7DFF8580600B5D9
:1002F00081B0804701B000BDFEE7DFF84C0600B5D5
:1003000081B0804701B000BDFEE7DFF8400600B5D0
:1003100081B0804701B000BDFEE7DFF8340600B5CC
:1003200081B0804701B000BDFEE7DFF8280600B5C8
:1003300081B0804701B000BDFEE7DFF81C0600B5C4
:1003400081B0804701B000BDFEE7DFF8100600B5C0
:1003500081B0804701B000BDFEE7DFF8040600B5BC
:1003600081B0804701B000BDFEE7DFF8F80500B5B9
:1003700081B0804701B000BDFEE7DFF8EC0500B5B5
:1003800081B0804701B000BDFEE7DFF8E00500B5B1
:1003900081B0804701B000BDFEE7DFF8D40500B5AD
:1003A00081B0804701B000BDFEE7DFF8C80500B5A9
:1003B00081B0804701B000BDFEE7DFF8BC0500B5A5
:1003C00081B0804701B000BDFEE7DFF8B00500B5A1
:1003D00081B0804701B000BDFEE7DFF8A40500B59D
:1003E00081B0804701B000BDFEE7DFF8980500B599
:1003F00081B0804701B000BDFEE7DFF88C0500B595
:1004000081B0804701B000BDFEE7DFF8800500B590
:1004100081B0804701B000BDFEE7DFF8740500B58C
:1004200081B0804701B000BDFEE7DFF8680500B588
:1004300081B0804701B000BDFEE7DFF85C0500B584
:1004400081B0804701B000BDFEE7DFF8500500B580
:1004500081B0804701B000BDFEE7DFF8440500B57C
:1004600081B0804701B000BDFEE7DFF8380500B578
:1004700081B0804701B000BDFEE7DFF82C0500B574
:1004800081B0804701B000BDFEE7DFF8200500B570
:1004900081B0804701B000BDFEE7DFF8140500B56C
:1004A00081B0804701B000BDFEE7DFF8080500B568
:1004B00081B0804701B000BDFEE7DFF8FC0400B565
:1004C00081B0804701B000BDFEE7DFF8F00400B561
:1004D00081B0804701B000BDFEE7DFF8E40400B55D
:1004E00081B0804701B000BDFEE7DFF8D80400B559
:1004F00081B0804701B000BDFEE7DFF8CC0400B555
:1005000081B0804701B000BDFEE7DFF8C00400B550
:1005100081B0804701B000BDFEE7DFF8B40400B54C
:1005200081B0804701B000BDFEE7DFF8A80400B548
:1005300081B0804701B000BDFEE7DFF89C0400B544
:1005400081B0804701B000BDFEE7DFF8900400B540
:1005500081B0804701B000BDFEE7DFF8840400B53C
:1005600081B0804701B000BDFEE7DFF8780400B538
:1005700081B0804701B000BDFEE7DFF86C0400B534
:1005800081B0804701B000BDFEE7DFF8600400B530
:1005900081B0804701B000BDFEE7DFF8540400B52C
:1005A00081B0804701B000BDFEE7DFF8480400B528
:1005B00081B0804701B000BDFEE7DFF83C0400B524
:1005C00081B0804701B000BDFEE7DFF8300400B520
:1005D00081B0804701B000BDFEE7DFF8240400B51C
:1005E00081B0804701B000BDFEE7DFF8180400B518
:1005F00081B0804701B000BDFEE7DFF80C0400B514
:1006000081B0804701B000BDFEE7DFF8000400B50F
:1006100081B0804701B000BDFEE7FD4800B581B064
:10062000804701B000BDFEE7FA4800B581B08047C1
:1006300001B000BDFEE7F84800B581B0804701B0C9
:1006400000BDFEE7F54800B581B0804701B000BDB0
:10065000FEE7F34800B581B0804701B000BDFEE77A
:10066000F04800B581B0804701B000BDFEE7EE481C
:1006700000B581B0804701B000BDFEE7EB4800B592
:1006800081B0804701B000BDFEE7E94800B581B008
:10069000804701B000BDFEE7E64800B581B0804765
:1006A00001B000BDFEE7E44800B581B0804701B06D
:1006B00000BDFEE7E14800B581B0804701B000BD54
:1006C000FEE7DF4800B581B0804701B000BDFEE71E
:1006D000DC4800B581B0804701B000BDFEE7DA48D4
:1006E00000B581B0804701B000BDFEE7D74800B536
:1006F00081B0804701B000BDFEE7D54800B581B0AC
:10070000804701B000BDFEE7D24800B581B0804708
:1007100001B000BDFEE7D04800B581B0804701B010
:1007200000BDFEE7CD4800B581B0804701B000BDF7
:10073000FEE7CB4800B581B0804701B000BDFEE7C1
:10074000C84800B581B0804701B000BDFEE7C6488B
:1007500000B581B0804701B000BDFEE7C34800B5D9
:1007600081B0804701B000BDFEE7C14800B581B04F
:10077000804701B000BDFEE7BE4800B581B08047AC
:1007800001B000BDFEE7BC4800B581B0804701B0B4
:1007900000BDFEE7B94800B581B0804701B000BD9B
:1007A000FEE7B74800B581B0804701B000BDFEE765
:1007B000B44800B581B0804701B000BDFEE7B24843
:1007C00000B581B0804701B000BDFEE7AF4800B57D
:1007D00081B0804701B000BDFEE7AD4800B581B0F3
:1007E000804701B000BDFEE7AA4800B581B0804750
:1007F00001B000BDFEE7A84800B581B0804701B058
:1008000000BDFEE7A54800B581B0804701B000BD3E
:10081000FEE7A34800B581B0804701B000BDFEE708
:10082000A04800B581B0804701B000BDFEE79E48FA
:1008300000B581B0804701B000BDFEE79B4800B520
:1008400081B0804701B000BDFEE7994800B581B096
:10085000804701B000BDFEE7964800B581B08047F3
:1008600001B000BDFEE7944800B581B0804701B0FB
:1008700000BDFEE7914800B581B0804701B000BDE2
:10088000FEE78F4800B581B0804701B000BDFEE7AC
:100890008C4800B581B0804701B000BDFEE78A48B2
:1008A00000B581B0804701B000BDFEE7874800B5C4
:1008B00081B0804701B000BDFEE7854800B581B03A
:1008C000804701B000BDFEE7824800B581B0804797
:1008D00001B000BDFEE7804800B581B0804701B09F
:1008E00000BDFEE77D4800B581B0804701B000BD86
:1008F000FEE77B4800B581B0804701B000BDFEE750
:10090000784800B581B0804701B000BDFEE7764869
:1009100000B581B0804701B000BDFEE7734800B567
:1009200081B0804701B000BDFEE7714800B581B0DD
:10093000804701B000BD4FF001007047C9020008B8
:10094000D9020008E9020008F902000809030008BA
:1009500019030008290300083903000849030008A7
:100960005903000869030008790300088903000897
:1009700099030008A9030008B9030008C903000887
:10098000D9030008E9030008F90300080904000876
:100990001904000829040008390400084904000863
:1009A0005904000869040008790400088904000853
:1009B00099040008A9040008B9040008C904000843
:1009C000D9040008E9040008F90400080905000832
:1009D000190500082905000839050008490500081F
:1009E000590500086905000879050008890500080F
:1009F00099050008A9050008B9050008C9050008FF
:100A0000D9050008E9050008F905000809060008ED
:100A100019060008270600083506000843060008E6
:100A2000510600085F0600086D0600087B060008F6
:100A30008906000897060008A5060008B306000806
:100A4000C1060008CF060008DD060008EB06000816
:100A5000F906000807070008150700082307000823
:100A6000310700083F0700084D0700085B07000832
:100A700069070008A511000885070008930700080A
:100A8000A1070008AF070008BD070008CB07000852
:100A9000D9070008E7070008F50700080308000861
:100AA000110800081F0800082D0800083B0800086E
:100AB000490800085708000865080008730800087E
:100AC000810800088F0800089D080008AB0800088E
:100AD000B9080008C7080008D5080008E30800089E
:100AE000F1080008FF0800080D0900081B090008AC
:100AF0002909000880B582B000AF4FF46D43CEF2F3
:100B000000034FF46D42CEF20002D2F8882042F486
:100B10007002C3F888204FF46D43CEF200034FF407
:100B20006D42CEF20002526922F008025A614FF47F
:100B30000043C5F200034FF40042C5F200025268C0
:100B400022F001025A604FF48053C5F6000303F50A
:100B5000805303F114031B687B607B6823F00F0351
:100B60007B607B6843F003037B604FF48053C5F6E2
:100B700000037A6803F5805303F114031A6000F050
:100B8000ABF800F005F807F10807BD4680BD00BFCF
:100B900080B485B000AF4FF48C43C5F20003DB682E
:100BA000B3F5803F40F0898044F21073C5F2000332
:100BB0001B6803F00403002B00F0888044F21073DC
:100BC000C5F200039B6803F070634FEA136303F1FF
:100BD0000103FB6044F21073C5F200039B6803F449
:100BE000FE434FEA132303F10103BB6044F2107389
:100BF000C5F200039B6803F4FE034FEA134303F1BD
:100C000001037B6044F21073C5F20003DB6803F05C
:100C10000103002B28D04FF45853C0F26E13FA682A
:100C2000B3FBF2F3BA6802FB03F33B603A687B68FC
:100C3000B2FBF3F240F63003C2F200031A6040F652
:100C40003003C2F200031A684FF48C43C5F200036C
:100C5000DB68DBB203F10103B2FBF3F240F63003D1
:100C6000C2F200031A6031E04FF4D853C0F2B70368
:100C7000FA68B3FBF2F3BA6802FB03F33B603A682D
:100C80007B68B2FBF3F240F63003C2F200031A6055
:100C900040F63003C2F200031A684FF48C43C5F2E9
:100CA0000003DB68DBB203F10103B2FBF3F240F6B1
:100CB0003003C2F200031A6008E040F63003C2F2CB
:100CC00000034FF45852C0F26E121A6007F1140775
:100CD000BD4680BC704700BF80B582B000AF01F058
:100CE00031F80346002B00F0558244F21073C5F230
:100CF00000035A684FF00203C0F201031340002BB7
:100D00000DD044F21073C5F2000344F21072C5F224
:100D10000002526822F4803222F002025A604FF43C
:100D20008E43C5F200035B6803F03003002B72D0E2
:100D30004FF48E43C5F200034FF48E42C5F2000219
:100D4000526822F0F0025A604FF48E43C5F200035D
:100D50004FF48E42C5F20002526842F400325A60EB
:100D600044F21073C5F2000344F21072C5F200029F
:100D7000D26822F00102DA6044F21073C5F2000377
:100D800044F21072C5F20002526822F400325A6036
:100D90004EF21003CEF2000344F6A332C0F24C022E
:100DA0005A604EF21003CEF200034FF000029A6038
:100DB0004EF21003CEF200034FF005021A6044F227
:100DC0001073C5F200031B6803F46073B3F5607F12
:100DD00008D04EF21003CEF200039A6840F2F313EB
:100DE0009A42ECD84EF21003CEF200034EF21002FB
:100DF000CEF20002126822F001021A6044F210736F
:100E0000C5F200031B6803F46073B3F5607F02D082
:100E10004FF00003C0E144F21073C5F200031B68F9
:100E200003F00403002B40F0B5814FF48C43C5F26E
:100E30000003DB6803F48033002B0BD04FF48C43AA
:100E4000C5F200034FF48C42C5F20002D26822F4CE
:100E50008032DA604FF46053C1F69C437B607A685D
:100E600049F68173C1F25E63A3FB02134FEA535349
:100E700003F1FF333B6044F21073C5F2000344F208
:100E80001072C5F20002526842F001025A6044F248
:100E90001073C5F2000344F21072C5F200025268EA
:100EA00042F010025A6044F21072C5F200023B6830
:100EB0004FEA034144F60173C0F200130B43936001
:100EC00044F21073C5F2000344F21072C5F200023E
:100ED000526842F040025A6044F21073C5F20003B7
:100EE00044F21072C5F20002526822F010025A60F9
:100EF00044F21073C5F2000344F21072C5F200020E
:100F0000526842F480225A604EF21003CEF200037F
:100F100044F6A332C0F24C025A604EF21003CEF2F5
:100F200000034FF000029A604EF21003CEF200036D
:100F30004FF005021A6000BF44F21073C5F20003BF
:100F40001B6803F00403002B08D14EF21003CEF20D
:100F500000039A6840F2F3139A42EDD84EF2100360
:100F6000CEF200034EF21002CEF20002126822F01E
:100F700001021A6044F21073C5F200031B6803F00B
:100F80000403002B4ED044F21073C5F2000344F268
:100F90001072C5F20002526822F001025A604FF44A
:100FA0008C43C5F200034FF000021A614FF48C43EA
:100FB000C5F200034FF000025A614FF48C43C5F2B2
:100FC00000034FF000021A624FF48C43C5F2000395
:100FD0004FF48C42C5F20002D26842F48032DA60EB
:100FE00044F21073C5F2000344F21072C5F200021D
:100FF000526822F040025A604EF21003CEF2000313
:1010000040F245525A604EF21003CEF200034FF008
:1010100000029A604EF21003CEF200034FF0050278
:101020001A6002E04FF00003B6E04EF21003CEF279
:1010300000039B68632BF8D84EF21003CEF2000336
:101040004EF21002CEF20002126822F001021A6083
:101050004FF46053C1F69C437B607B684FEA1322D8
:1010600045F2C743C0F21E13A3FB02134FEA9323BA
:1010700003F1FF333B6044F21072C5F200023B689B
:101080004FEA034144F60173C0F200130B4393602F
:101090004EF21003CEF2000340F61B425A604EF2AD
:1010A0001003CEF200034FF000029A604EF21003DC
:1010B000CEF200034FF005021A6000BF4EF210039B
:1010C000CEF200039B68632BF8D84EF21003CEF2E9
:1010D00000034EF21002CEF20002126822F001026A
:1010E0001A604FF46053C1F69C437B607B684FEA03
:1010F000D3124EF22F33C0F2BE03A3FB02134FEA0A
:10110000D32303F1FF333B6044F21072C5F20002B7
:101110003B684FEA034144F60173C0F200130B43EE
:1011200093604EF21003CEF2000341F223325A6074
:101130004EF21003CEF200034FF000029A604EF21E
:101140001003CEF200034FF005021A6000BF4EF20A
:101150001003CEF200039B68632BF8D84EF2100305
:10116000CEF200034EF21002CEF20002126822F01C
:1011700001021A6044F21073C5F2000344F60172D2
:10118000C0F203129A6044F26013C5F200034FF0FC
:101190000502DA604FF00103184607F10807BD4663
:1011A00080BD00BF80B500AF42F6BC20C0F6000095
:1011B0004FF001014FF0010201F026FB0346012B25
:1011C00028D142F6BC20C0F600004FF001014FF0DC
:1011D000010201F095FB42F6BC20C0F6000040F68B
:1011E0001001C2F200014FF0010201F05BF942F67A
:1011F000BC20C0F600004FF002014FF00802064B81
:1012000001F052FA42F6BC20C0F600004FF0020195
:1012100001F0B0F880BD00BF1B08002080B582B08F
:1012200000AF00F0E5FA4FF000037B6010E04FF0F4
:1012300000033B6003E03B6803F101033B603A6855
:1012400042F20F739A42F6DD7B6803F101037B6083
:101250007A6840F2E7339A42E9DDE4E780B485B08A
:1012600000AFF860B9607A604FF0FF33184607F1BD
:101270001407BD4680BC704780B485B000AFF860ED
:10128000B9607A604FF0FF33184607F11407BD4686
:1012900080BC704780B485B000AFF860B9607A60F8
:1012A0004FF00003184607F11407BD4680BC704795
:1012B00080B485B000AFF860B9607A604FF0FF335A
:1012C000184607F11407BD4680BC704780B400AFD4
:1012D0004FF0FF331846BD4680BC704780B483B0E2
:1012E00000AF786039603B68002B02D04FF0FF33CD
:1012F00001E06FF00103184607F10C07BD4680BC02
:10130000704700BF80B483B000AF786039607A68FE
:101310003B689A4202D14FF0FF3301E06FF00103C6
:10132000184607F10C07BD4680BC704780B483B0F7
:1013300000AF78604FF0FF33184607F10C07BD4649
:1013400080BC704780B487B000AF78604FF298736C
:10135000C0F200037B6140F60403C2F200031B6885
:10136000002B14D140F60403C2F2000340F66802D9
:10137000C2F200021A6040F60403C2F200031A68C7
:101380007B69D21840F60803C2F200031A6040F6E7
:101390000403C2F200031B683B6140F60403C2F27F
:1013A00000031B681A467B68D31803F1070323F078
:1013B0000703FB6040F60803C2F200031B68FA68EB
:1013C0009A4202D34FF0000306E040F60403C2F253
:1013D0000003FA681A603B69184607F11C07BD460E
:1013E00080BC704780B483B000AF78604FF0FF33AB
:1013F000184607F10C07BD4680BC704780B483B027
:1014000000AF78604FF0FF33184607F10C07BD4678
:1014100080BC704780B483B000AF786039604FF013
:10142000FF33184607F10C07BD4680BC704700BF6C
:1014300080B400AF4FF0FF331846BD4680BC704704
:1014400080B400AF4FF0FF331846BD4680BC7047F4
:1014500080B483B000AF7860FEE700BF80B400AF17
:10146000BD4680BC704700BF80B483B000AF7860D9
:101470004FF0FF33184607F10C07BD4680BC70479C
:1014800080B487B000AF78604FF000037B614FF00D
:1014900000033B614FF48843C5F20003FB607B68A7
:1014A0004FEA13733B61FB6803F1100319463A6975
:1014B00013464FEA43039B184FEA8303CB187B6123
:1014C0007B6823F070427B691A6007F11C07BD46F8
:1014D00080BC704780B487B000AF78604FF00003E5
:1014E0007B614FF000033B614FF48843C5F200037A
:1014F000FB607B684FEA13733B61FB6803F11403E5
:1015000019463A6913464FEA43039B184FEA83038F
:10151000CB187B617B6823F070427B691A6007F10E
:101520001C07BD4680BC704780B483B000AF4FF449
:101530008843C5F200037B607B681B68DBB21846FA
:1015400007F10C07BD4680BC704700BF80B489B06E
:1015500000AF78604FF00F03FB614FF00003BB61F9
:101560004FF000037B614FF000033B614FF4884371
:10157000C5F20003FB607B684FEA13737B61FB6875
:1015800003F10C0319467A6913464FEA43039B188B
:101590004FEA8303CB18BB61BB691A687B681340B1
:1015A00023F070433B613B69002B03D04FF00103F4
:1015B000FB6102E04FF00003FB61FB69184607F195
:1015C0002407BD4680BC704780B400AF4FF46D4324
:1015D000CEF20003DB6803F4E0634FEA13231846FE
:1015E000BD4680BC704700BF80B483B000AF0346E7
:1015F000FB714FF46143CEF2000397F907204FEAE5
:101600005212F97901F01F014FF0010000FA01F1C7
:1016100043F8221007F10C07BD4680BC704700BF9D
:1016200080B483B000AF0346FB714FF46143CEF248
:10163000000397F907204FEA5212F97901F01F01D0
:101640004FF0010000FA01F102F1200243F82210EC
:1016500007F10C07BD4680BC704700BF80B483B063
:1016600000AF03463960FB7197F90730002B10DAA1
:101670004FF46D43CEF20003FA7902F00F02A2F1AB
:1016800004013A68D2B24FEA8202D2B25B181A76EB
:101690000DE04FF46143CEF2000397F907103A686A
:1016A000D2B24FEA8202D2B25B1883F8002307F16C
:1016B0000C07BD4680BC704780B489B000AFF860AD
:1016C000B9607A60FB6803F00703FB61FB69C3F153
:1016D0000703062B28BF0623BB61FB6903F1060342
:1016E000062B03D9FB6903F1FF3301E04FF0000340
:1016F0007B61BB694FF0010202FA03F303F1FF3390
:101700001A46BB681A407B6902FA03F27B694FF004
:10171000010101FA03F303F1FF3319467B680B4023
:101720001343184607F12407BD4680BC704700BF2D
:1017300080B500AFFFF748FF034618464FF00A0197
:101740004FF00002FFF7B8FF03464FF04D00194677
:10175000FFF784FF4FF04D00FFF746FF80BD00BF4D
:1017600080B582B000AF78607B681B78DBB25BB27B
:101770001846FFF739FF07F10807BD4680BD00BFD7
:1017800080B582B000AF78607B681B78DBB25BB25B
:101790001846FFF745FF07F10807BD4680BD00BFAB
:1017A00080B485B000AF78607B6803F00703FB600E
:1017B0004FF46D43CEF20003DB68BB60BA684FF6AE
:1017C000FF031340BB60FB684FEA0322BB6813436F
:1017D00043F0BF6343F40033BB604FF46D43CEF27C
:1017E0000003BA68DA6007F11407BD4680BC704791
:1017F00080B500AF4FF00100FFF7D2FF00F04AF8CC
:1018000000F092FA00F0A0FCFFF792FF00F008F859
:1018100080BD00BF80B500AF00F086FA80BD00BF7C
:1018200080B400AF4FF4A043C4F601034FF4A042CC
:10183000C4F60102926822F0070242F001029A60A7
:101840004FF48843C4F601034FF48842C4F6010202
:10185000126822F040021A604FF48843C4F6010374
:101860004FF48842C4F60102126822F001021A60A5
:101870004FF40143C4F602034FF40142C4F60202DE
:10188000926922F4384242F410429A61BD4680BC0B
:10189000704700BF80B400AFBD4680BC704700BF3A
:1018A00080B485B000AF78604FF00003FB604FF06C
:1018B0000003FB6007E000BF00BF00BF00BFFB6884
:1018C00003F10103FB60FA687B689A42F3D307F1E6
:1018D0001407BD4680BC704780B483B000AF4FF0A2
:1018E00001037B6044F21073C5F200035A684FF0A5
:1018F0000203C0F201031340002B02D04FF000039B
:101900007B607B68184607F10C07BD4680BC7047BA
:1019100080B584B000AF4FF00103FB604FF4844307
:10192000C5F200031B6803F00103002B0BD14FF439
:101930008443C5F200034FF48442C5F200025268AA
:1019400042F001025A604FF48843C5F200031B685D
:1019500003F40073002B0BD04FF48843C5F200034F
:101960004FF48842C5F20002926842F400729A6015
:1019700044F21073C5F2000344F21072C5F2000283
:10198000526822F480125A604FF06400FFF788FF1B
:1019900044F21073C5F2000344F21072C5F2000263
:1019A000526842F400225A604FF06400FFF778FF5B
:1019B00044F21073C5F2000344F21072C5F2000243
:1019C000526822F4803222F002025A604FF48E43B1
:1019D000C5F200035B6803F03003002B54D04FF4D2
:1019E0008E43C5F200034FF48E42C5F200025268E6
:1019F00022F030025A604FF48E43C5F200034FF4D8
:101A00008E42C5F20002526842F440325A6044F2FB
:101A10001073C5F2000344F21072C5F20002D268DE
:101A200022F00102DA6044F21073C5F2000344F2BE
:101A30001072C5F20002526822F400325A6044F279
:101A400050637B604FF00A00FFF72AFF7B6803F1C9
:101A5000FF337B6044F21073C5F200031B6803F48C
:101A60006073B3F5607F02D07B68002BEAD144F24B
:101A70001073C5F200031B6803F46073B3F5607F55
:101A800002D04FF00003FB6044F21073C5F2000374
:101A90001B6803F00403002B40F087804FF4605371
:101AA000C1F69C43BB60BA6849F68173C1F25E63BC
:101AB000A3FB02134FEA535303F1FF333B6044F29D
:101AC0001073C5F2000344F21072C5F200025268AE
:101AD00042F001025A6044F21073C5F2000344F26E
:101AE0001072C5F20002526842F010025A6044F2CD
:101AF0001073C5F200033A684FEA024242F41C52E6
:101B00009A6044F21073C5F2000344F21072C5F2F9
:101B10000002526842F040025A6044F21073C5F26B
:101B2000000344F21072C5F20002526822F0100263
:101B30005A6044F21073C5F2000344F21072C5F209
:101B40000002526842F480225A6044F250637B6083
:101B50004FF00A00FFF7A4FE7B6803F1FF337B60C0
:101B600044F21073C5F200031B6803F00403002B5A
:101B700002D17B68002BEBD144F21073C5F2000355
:101B80001B6803F00403002B0CD044F21073C5F261
:101B9000000344F21072C5F20002526822F0010202
:101BA0005A6002E04FF00003FB604FF48C43C5F233
:101BB00000034FF48C42C5F20002D26842F4803236
:101BC000DA6044F21073C5F2000344F21072C5F2F9
:101BD0000002526822F040025A604FF06400FFF7A2
:101BE0005FFEBB684FEA132245F2C743C0F21E13E3
:101BF000A3FB02134FEA932303F1FF333B6044F24C
:101C00001073C5F200033A684FEA024242F41C52D4
:101C10009A604FF06400FFF743FEBB684FEAD312AF
:101C20004EF22F33C0F2BE03A3FB02134FEAD323BD
:101C300003F1FF333B6044F21073C5F200033A68CE
:101C40004FEA024242F41C529A604FF09600FFF7AE
:101C500027FE44F21073C5F200034FF41C52C0F289
:101C600003029A6044F26013C5F200034FF00502CC
:101C7000DA60FB68184607F11007BD4680BD00BF5B
:101C800080B400AF4FF48443C5F200031B6803F037
:101C90000103002B10D14FF48443C5F200034FF031
:101CA00001025A6000BF4FF48443C5F200031B6871
:101CB00003F00103002BF6D04FF48843C5F2000374
:101CC0001B6803F40073002B0BD04FF48843C5F25C
:101CD00000034FF48842C5F20002926842F4007299
:101CE0009A604FF48643C5F200034FF48642C5F272
:101CF0000002D268DA6000BF44F27403C5F2000348
:101D00005B6803F40023002BF6D044F27403C5F2A1
:101D1000000344F27402C5F20002D26842F40022C9
:101D2000DA60BD4680BC704780B500AFFFF7D4FDD8
:101D30000346002B01D1FFF7EBFDFFF7A1FFFEF7F4
:101D400027FF80BD80B400AF4FF000031846BD46AA
:101D500080BC704780B500AF40F60C03C2F20003B0
:101D60001B78002B42D14FF01000C1F20000FFF7AA
:101D7000B1FB4FF48043C4F601034FF48042C4F634
:101D80000102126822F001021A6000BF4FF4804382
:101D9000C4F601031B6803F00203002BF6D14FF4D5
:101DA0008043C4F601034FF48042C4F60102D268B6
:101DB00042F48042DA604FF48043C4F601034FF4EA
:101DC0008042C4F60102D2686FEA92226FEA822250
:101DD000DA6040F60C03C2F200031B7803F1010342
:101DE000DAB240F60C03C2F200031A7080BD00BFE5
:101DF00080B483B000AF02460B46FA71BB714FF45A
:101E00008043C4F60103FA7902F101024FEA02614C
:101E1000BA794FEA02420A4342F00202C3F8C421EF
:101E200000BF4FF48043C4F60103D3F8C43103F478
:101E30008073002BF5D107F10C07BD4680BC7047BD
:101E400080B485B000AF78604FF00003FB604FF4C2
:101E50008043C4F60103D3F80031DBB2FB604FF4DA
:101E60008043C4F60103FA684FEA02617A684FEAD8
:101E700002420A4342F00402C3F8C42100BF4FF4F7
:101E80008043C4F60103D3F8C43103F48073002BFC
:101E9000F5D107F11407BD4680BC704780B485B00A
:101EA00000AF78600B46FB70FB7803F1107303F50D
:101EB00028634FEA4313BB604FF00003FB60BB682D
:101EC0004FF02002DA617B681B7A002B25D17B68FA
:101ED0001B684FEA83424FF00003C1F6FC731340C6
:101EE00043F00042BB689A617B685B7A012B0DD19D
:101EF0007B685B684FEA83424FF00003C1F6FC73D6
:101F0000134043F00052BB68DA601BE07B685B68FB
:101F100023F06042BB68DA6014E07B681B6823F042
:101F2000604343F02042BB689A617B685B7A4FEA6A
:101F3000437303F000527B685B6823F060431A43ED
:101F4000BB68DA607B681B7D012B77D17B689B7A4D
:101F50004FEA036303F07062BB681B6823F0706391
:101F60001A43BB681A604FF00003FB6059E0FB683E
:101F7000032B23D87A68FB68D31803F10803DB78B6
:101F80001A46FB684FEAC30302FA03F2FB684FEA02
:101F9000C3034FF0FF0101FA03F31A40BB6819694C
:101FA000FB684FEAC3034FF0FF0000FA03F36FEA48
:101FB00003030B401A43BB681A612EE07A68FB6882
:101FC000D31803F10803DB781A46FB6803F10053CA
:101FD000A3F104034FEAC30302FA03F2FB6803F11F
:101FE0000053A3F104034FEAC3034FF0FF0101FACA
:101FF00003F31A40BB685969FB6803F10053A3F16E
:1020000004034FEAC3034FF0FF0000FA03F36FEA43
:1020100003030B401A43BB685A61FB6803F10103D9
:10202000FB607B689B7A1A46FB689A429FD8BA6825
:102030004FF00003C0F60803D36103E0BB684FF420
:102040000062DA61BB684FF0D462DA6107F114070D
:10205000BD4680BC704700BF80B586B000AF7860D9
:102060004FF000037B614FF4A043C4F601033B61D2
:102070007B689B68FB6000BF4FF48043C4F601039C
:10208000D3F8C43103F48073002BF5D1FB681B68CF
:1020900043F04102FB681A607B681B794FEAC33248
:1020A0007B68DB784FEA03331A437B689B784FEAFF
:1020B00003231A437B685B784FEA83131A437B68D8
:1020C0001B781A43FB681A617B685B7B012B05D187
:1020D000FB68DB6843F48072FB68DA604FF0000352
:1020E0007B6127E07B681A7B7B68997B7B69DBB22D
:1020F000CB18DBB210461946FFF77AFE7B689A7B55
:102100007B69DBB2D318FB72FB7A03F1107303F522
:1021100028634FEA43133B617B681B7B4FEA4332E2
:102120007B694FEA03231A433B699A607B6903F199
:1021300001037B617B68DB7B1A467B699A42D1D8BD
:1021400007F11807BD4680BD80B500AFFFF702FE5E
:1021500042F6BC20C0F60000FFF77EFF42F6BC202E
:10216000C0F6000040F63401C2F200014FF0010257
:1021700000F0A8F842F6BC23C0F600039B7B4FEAB0
:10218000431303F1904303F5A8331A4642F6BC23E8
:10219000C0F600039B7B4FEA431303F1904303F522
:1021A000A8331B6843F48033136042F6BC20C0F6AA
:1021B000000040F64C01C2F200014FF0020200F0B4
:1021C00081F880BD80B588B000AF78604FF0000323
:1021D000FB614FF00003BB614FF4A043C4F6010361
:1021E0007B617B689B683B617B68DB7B03F1FF3332
:1021F000FB6136E07B689A7BFB69DBB2D318FB732B
:10220000FB7B03F1107303F528634FEA43137B61F3
:102210007B694FF000021A607B699B68DAB27B69C8
:102220009A607B696FF04042DA607B694FF0000290
:102230001A617B694FF000025A617B694FF000021E
:102240009A617B6940F6FF72DA617B689B7B1A4674
:10225000FB69D3181846FFF7F3FDFB6903F1FF3361
:10226000FB61FB69002BC5DA3B694FF041021A6044
:102270003B694FF000025A603B69DB6803F00F02D4
:102280003B69DA603B694FF4C0025A613B694FF029
:1022900000029A613B694FF000021A617B681B7B68
:1022A0001A4645F25003C1F20023D3184FEA8303C4
:1022B000BB61BB694FF000021A6007F12007BD4601
:1022C00080BD00BF80B588B000AFF860B96013462C
:1022D000FB714FF00203FB61FB689A7BFB79D3181B
:1022E000DBB203F1FF33FB76FB7E03F1107303F5E2
:1022F00028634FEA43137B61BB681B7A002B03D032
:10230000BB681B7A012B0FD1BB68DB7C012B03D090
:10231000BB68DB7C002B07D1BB681B7D002B07D083
:10232000BB681B7D012B03D04FF00603FB611AE055
:10233000BB68DB7C002B07D17B694FF02002DA61A0
:102340004FF00003FB610EE0FB689A7BFB79D3182A
:10235000DBB203F1FF33DBB2B8681946FFF79EFD2D
:102360004FF00003FB61FB69184607F12007BD46EB
:1023700080BD00BF80B487B000AF78600B46FB70B3
:102380004FF005037B617B689A7BFB78D318DBB247
:1023900003F1FF33FB74FB7C03F1107303F5286337
:1023A0004FEA4313FB60FB68DB6903F400634FEA09
:1023B000D323012B03D04FF001037B611EE0FB68A8
:1023C000DB6903F020034FEA5313002B03D14FF0D6
:1023D00003037B6112E0FB68DB6903F480734FEA5F
:1023E0001323012B03D14FF004037B6106E0FB684C
:1023F0004FF08072DA614FF000037B617B69184611
:1024000007F11C07BD4680BC704700BF80B487B091
:1024100000AF78600B46FB704FF000037B617B6878
:102420009A7BFB78D318DBB203F1FF33FB74FB7CA0
:1024300003F1107303F528634FEA4313FB60FB6855
:10244000DB6903F400634FEAD323002B03D04FF082
:1024500001037B611EE0FB68DB6903F020034FEAA8
:102460005313002B03D14FF003037B6112E0FB6891
:10247000DB6903F480734FEA1323012B03D14FF080
:1024800004037B6106E0FB684FF08072DA614FF075
:1024900000037B617B69184607F11C07BD4680BCC1
:1024A000704700BF80B489B000AFF860B9601346D0
:1024B000FB714FF00503FB614FF00003BB614FF070
:1024C0000003FB754FF00003BB75FB689A7BFB793B
:1024D000D318DBB203F1FF337B757B7D03F11073FF
:1024E00003F528634FEA43133B613B69DB6903F45F
:1024F00000634FEAD323002B03D04FF00103FB61AD
:10250000CAE03B69DB6903F004034FEA9303012B44
:1025100003D14FF00403FB61BEE03B694FF00802BA
:10252000DA613B699B6903F000534FEA5373002B58
:102530002ED1BB684FF000021A723B699A694FF0C6
:102540000003C1F6FC7313404FEA9342BB681A6064
:102550003B69DB6803F000534FEA5373DAB2BB68A0
:102560005A72BB685B7A012B0BD13B69DA684FF07A
:102570000003C1F6FC7313404FEA9342BB685A60F4
:102580001FE03B69DB6823F06042BB685A6018E0DB
:10259000BB684FF001021A723B699B6923F06042ED
:1025A000BB681A603B69DB6823F06042BB685A6015
:1025B0003B69DB6803F000534FEA5373DAB2BB6840
:1025C0005A723B691B6803F070634FEA1363DAB217
:1025D000BB689A724FF00003BB613BE0BB69032B01
:1025E00016D83B691A69BB694FEAC3034FF0FF0174
:1025F00001FA03F31A40BB694FEAC30322FA03F35B
:10260000DAB2B968BB69CB1803F10803DA701DE0D0
:102610003B695A69BB6903F10053A3F104034FEA14
:10262000C3034FF0FF0101FA03F31A40BB6903F142
:102630000053A3F104034FEAC30322FA03F3DAB20F
:10264000B968BB69CB1803F10803DA70BB6903F101
:102650000103BB61BB689B7A1A46BB699A42BDD82D
:102660003B69DB6903F004034FEA9303FB753B69A5
:10267000DB6903F008034FEAD303BB75FB7D002B36
:1026800003D0BB7D002B7FF448AFBB684FF0000246
:102690001A754FF00003FB61FB69184607F1240728
:1026A000BD4680BC704700BF80B489B000AFF86001
:1026B0007B600B46FB721346BB724FF00503FB6158
:1026C0004FF00003BB61FB689A7BFB7AD318DBB247
:1026D00003F1FF33FB75FB7D03F1107303F52863F2
:1026E0004FEA43133B61BB7A082B03D94FF0060333
:1026F000FB6182E03B69DB6903F400634FEAD323AB
:10270000012B03D04FF00103FB6176E03B694FF0F2
:102710002002DA61BB7A4FEA036303F070623B691F
:102720001B6823F070631A433B691A604FF0000383
:10273000BB6155E0BB69032B21D87A68BB69D3180C
:102740001B781A46BB694FEAC30302FA03F2BB695E
:102750004FEAC3034FF0FF0101FA03F31A403B694C
:102760001969BB694FEAC3034FF0FF0000FA03F396
:102770006FEA03030B401A433B691A612CE07A6845
:10278000BB69D3181B781A46BB6903F10053A3F148
:1027900004034FEAC30302FA03F2BB6903F10053D7
:1027A000A3F104034FEAC3034FF0FF0101FA03F35F
:1027B0001A403B695969BB6903F10053A3F1040353
:1027C0004FEAC3034FF0FF0000FA03F36FEA03037D
:1027D0000B401A433B695A61BB6903F10103BB61BA
:1027E000BA7ABB699A42A5D83A694FF04003C0F261
:1027F000A863D3614FF00003FB61FB69184607F142
:102800002407BD4680BC704780B487B000AF7860B5
:1028100013460A46FA70BB704FF005037B617B6874
:102820009A7BFB78D318DBB203F1FF33FB74FB7C9C
:1028300003F1107303F528634FEA4313FB60FB6851
:10284000DA69BB781340002B03D04FF001037B61A2
:1028500002E04FF000037B617B69184607F11C071B
:10286000BD4680BC704700BF80B485B000AF7860C3
:102870000B467B804FF00503FB607B689B68BB6069
:10288000BB685A687B881340002B03D04FF00103CC
:10289000FB6002E04FF00003FB60FB68184607F1A5
:1028A0001407BD4680BC704780B485B000AF786027
:1028B0000B46FB704FF00503FB607B681B7B1A46E1
:1028C00045F25003C1F20023D3184FEA8303BB60E3
:1028D000BB681A68FB7803F1FF334FF0FF3101FA50
:1028E00003F31A40FB7803F1FF3322FA03F3FB6092
:1028F000FB68184607F11407BD4680BC704700BF4F
:1029000080B487B000AF786013460A46FA70BB7097
:102910004FF005037B617B689A7BFB78D318DBB2B1
:1029200003F1FF33FB74FB7C03F1107303F52863A1
:102930004FEA4313FB60FB78002B04D07B68DB7B02
:10294000FA789A4203D94FF002037B6107E0BB7823
:1029500003F01B02FB68DA614FF000037B617B69C7
:10296000184607F11C07BD4680BC704780B485B08F
:1029700000AF78600B467B807B689B68FB60FB68E0
:102980005A687B8803F478736FEA03031A40FB6884
:102990005A6007F11407BD4680BC704780B485B00B
:1029A00000AF78600B46FB704FF00503FB604FF003
:1029B0000003BB60FB78002B04D07B68DB7BFA78DC
:1029C0009A4203D94FF00203FB601BE07B681B7B3C
:1029D0001A4645F25003C1F20023D3184FEA83038D
:1029E000BB60BB681A68FB7803F1FF334FF001014D
:1029F00001FA03F36FEA03031A40BB681A604FF051
:102A00000003FB60FB68184607F11407BD4680BC55
:102A1000704700BFF8B5204F204C381B871017D0E7
:102A20007A1E2368012502F001069847AF420FD0B5
:102A30002EB154F8041F02258847AF4208D06068C1
:102A400080470235A268261D90470834AF42F6D170
:102A5000134F144CFEF702FD3B1B9F1018D07D1E38
:102A6000216805F0010601258847AF4211D02EB13B
:102A700054F8040F02258047AF420BD0626890479C
:102A80000235A368261D98470834AF42F6D1F8BD39
:102A9000F8BDF8BDF8BD00BFA82A0008A82A0008A4
:082AA000A82A0008A82A00087A
:102AA80058D7FF7F010000006CD7FF7F01000000AE
:102AB8004D0A00002F0106010000000000440148F3
:042AC8000200000206
:102AD000000E270701000000FFFFFF1F010100009B
:102AE00000000000000000010000000002000000E3
:102AF000FFFFFF1F010100000000000000000001B7
:042B000001000000D0
:0400000508000201EC
:00000001FF
